{
  "_format": "hh-sol-artifact-1",
  "contractName": "PetAdoption",
  "sourceName": "contracts/PetAdoption.sol",
  "abi": [
    {
      "inputs": [
        {
          "internalType": "uint256",
          "name": "initialPetIndex",
          "type": "uint256"
        }
      ],
      "stateMutability": "nonpayable",
      "type": "constructor"
    },
    {
      "inputs": [],
      "name": "addPet",
      "outputs": [],
      "stateMutability": "nonpayable",
      "type": "function"
    },
    {
      "inputs": [
        {
          "internalType": "uint256",
          "name": "adoptIdx",
          "type": "uint256"
        }
      ],
      "name": "adoptPet",
      "outputs": [],
      "stateMutability": "nonpayable",
      "type": "function"
    },
    {
      "inputs": [
        {
          "internalType": "uint256",
          "name": "",
          "type": "uint256"
        }
      ],
      "name": "allAdoptedPets",
      "outputs": [
        {
          "internalType": "uint256",
          "name": "",
          "type": "uint256"
        }
      ],
      "stateMutability": "view",
      "type": "function"
    },
    {
      "inputs": [],
      "name": "getAllAdoptedPets",
      "outputs": [
        {
          "internalType": "uint256[]",
          "name": "",
          "type": "uint256[]"
        }
      ],
      "stateMutability": "view",
      "type": "function"
    },
    {
      "inputs": [],
      "name": "getAllAdoptedPetsByOwner",
      "outputs": [
        {
          "internalType": "uint256[]",
          "name": "",
          "type": "uint256[]"
        }
      ],
      "stateMutability": "view",
      "type": "function"
    },
    {
      "inputs": [],
      "name": "getOwner",
      "outputs": [
        {
          "internalType": "address",
          "name": "",
          "type": "address"
        }
      ],
      "stateMutability": "view",
      "type": "function"
    },
    {
      "inputs": [],
      "name": "owner",
      "outputs": [
        {
          "internalType": "address",
          "name": "",
          "type": "address"
        }
      ],
      "stateMutability": "view",
      "type": "function"
    },
    {
      "inputs": [
        {
          "internalType": "address",
          "name": "",
          "type": "address"
        },
        {
          "internalType": "uint256",
          "name": "",
          "type": "uint256"
        }
      ],
      "name": "ownerAddressToPetList",
      "outputs": [
        {
          "internalType": "uint256",
          "name": "",
          "type": "uint256"
        }
      ],
      "stateMutability": "view",
      "type": "function"
    },
    {
      "inputs": [
        {
          "internalType": "uint256",
          "name": "",
          "type": "uint256"
        }
      ],
      "name": "petIdxToOwnerAddress",
      "outputs": [
        {
          "internalType": "address",
          "name": "",
          "type": "address"
        }
      ],
      "stateMutability": "view",
      "type": "function"
    },
    {
      "inputs": [],
      "name": "petIndex",
      "outputs": [
        {
          "internalType": "uint256",
          "name": "",
          "type": "uint256"
        }
      ],
      "stateMutability": "view",
      "type": "function"
    }
  ],
  "bytecode": "0x6080604052600060015534801561001557600080fd5b5060405161057a38038061057a8339810160408190526100349161004e565b600080546001600160a01b03191633179055600155610067565b60006020828403121561006057600080fd5b5051919050565b610504806100766000396000f3fe608060405234801561001057600080fd5b506004361061009e5760003560e01c8063893d20e811610066578063893d20e8146101045780638da5cb5b14610129578063a002a1351461013c578063b2421a321461014f578063f2d5a0551461017857600080fd5b806319b81577146100a357806330671a09146100b85780633ff4a0eb146100d457806346f43d43146100e95780635f5799ef146100f1575b600080fd5b6100b66100b1366004610412565b610180565b005b6100c160015481565b6040519081526020015b60405180910390f35b6100dc610298565b6040516100cb919061042b565b6100b66102f0565b6100c16100ff36600461046f565b610361565b6000546001600160a01b03165b6040516001600160a01b0390911681526020016100cb565b600054610111906001600160a01b031681565b6100c161014a366004610412565b610392565b61011161015d366004610412565b6003602052600090815260409020546001600160a01b031681565b6100dc6103b3565b60015481106101cb5760405162461bcd60e51b815260206004820152601260248201527114195d08191bd95cc81b9bdd08195e1a5cdd60721b60448201526064015b60405180910390fd5b6000818152600360205260409020546001600160a01b0316156102265760405162461bcd60e51b815260206004820152601360248201527214195d08185b1c9958591e4818591bdc1d1959606a1b60448201526064016101c2565b600081815260036020908152604080832080546001600160a01b0319163390811790915583526004825282208054600181810183559184529183209091018390556002805491820181559091527f405787fa12a823e0f2b7631cc41b3ba8828b3321ca811111fa75cd3aa3bb5ace0155565b606060028054806020026020016040519081016040528092919081815260200182805480156102e657602002820191906000526020600020905b8154815260200190600101908083116102d2575b5050505050905090565b6000546001600160a01b0316331461034a5760405162461bcd60e51b815260206004820152601760248201527f4f6e6c79206f776e65722063616e20616464207065747300000000000000000060448201526064016101c2565b6001805490600061035a836104a7565b9190505550565b6004602052816000526040600020818154811061037d57600080fd5b90600052602060002001600091509150505481565b600281815481106103a257600080fd5b600091825260209091200154905081565b336000908152600460209081526040918290208054835181840281018401909452808452606093928301828280156102e657602002820191906000526020600020908154815260200190600101908083116102d2575050505050905090565b60006020828403121561042457600080fd5b5035919050565b6020808252825182820181905260009190848201906040850190845b8181101561046357835183529284019291840191600101610447565b50909695505050505050565b6000806040838503121561048257600080fd5b82356001600160a01b038116811461049957600080fd5b946020939093013593505050565b6000600182016104c757634e487b7160e01b600052601160045260246000fd5b506001019056fea2646970667358221220296f15d03fc4970f35571986370f59b3c6f8f5d0f6d8fca03b39f224af50f7b664736f6c63430008120033",
  "linkReferences": {},
  "deployedLinkReferences": {}
}